:020000040800F2
:10000000B805002045010008832500087723000873
:10001000812500081B0B0008A92D00080000000026
:10002000000000000000000000000000A126000801
:100030001D0B00080000000079260008A326000818
:100040005F0100085F0100085F0100085F01000810
:100050005F0100085F0100085F0100085F01000800
:100060005F0100085F010008210B00085F01000824
:100070005F0100085F0100085F0100085F010008E0
:100080005F0100085F0100085F0100085F010008D0
:100090005F0100085F0100085F010008B90B00085C
:1000A0005F0100085F0100085F0100085F010008B0
:1000B0005F0100085F0100083D2700085F0100089C
:1000C0005F0100085F0100085F0100085F01000890
:1000D0005F0100089D2D00085F0100085F01000816
:1000E0005F0100085F0100085F0100085F01000870
:1000F0005F0100085F0100085F0100085F01000860
:100100005F0100085F010008492700085F0100083F
:100110005F0100085F0100085F0100085F0100083F
:100120005F0100085F0100085F0100085F0100082F
:10013000DFF80CD000F07EFC00480047C136000814
:10014000B80500200648804706480047FEE7FEE75E
:10015000FEE7FEE7FEE7FEE7FEE7FEE7FEE7FEE777
:10016000F526000831010008202A04DB203A21FA94
:1001700002F00021704721FA02F3D040C2F12002C0
:100180009140084319467047D2B201E000F8012BB4
:10019000491EFBD270470022F6E710B513460A4607
:1001A00004461946FFF7F0FF204610BD70B506461D
:1001B00002F00CFE046805460A220021304600F0D9
:1001C0003DFB2C6070BDF0B480EA0102D40F420008
:1001D000B2EB410F02D20246084611464A0042D015
:1001E000C30DDDB2C1F3C752AD1A202D35DAC1F30C
:1001F000160141F4000204B15242C5F1200602FA90
:1002000006F12A411044B3EBD05F23D0C4B1012DD5
:10021000A0EBC35009DCF0BC4FF0004202EAC3522D
:10022000DBB200F5000000F04ABB400000F1807036
:1002300000EBC350A0F1807040EAD170490009E0A2
:10024000490841EAC071A0EBC35000F50000400826
:1002500000EBC350F0BC00F029BB6142012202EB6D
:100260004101001BF6E7F0BC704781F00041AAE7AE
:1002700080F00040A7E780EA010210B502F00043D9
:10028000400022D04A001FD0010E01EB1261C0F3E2
:100290005600C2F3560240F4000042F40002A0FBF4
:1002A000022000047F39140400D0401C50EA1240A0
:1002B00001D44000491EC2B20C0604EBD010401C11
:1002C0004008802A02D003E0002010BD20F0010089
:1002D000002900DA0020184310BD30B480EA010282
:1002E00002F0004530F0004221F0004013D090B100
:1002F000C30DD40DC2F31601C0F31600E41A41F485
:10030000000140F400027D34914201D3641C00E0FE
:100310004900002C02DA30BC002070474FF4000086
:100320000023914201D3891A034340084FEA410157
:10033000F7D151B1914202D14FF0004105E002D214
:100340004FF0010101E06FF0010103EBC4502844BC
:1003500030BC00F0ABBA420005D0C0F3C7525242E5
:10036000914201DC0020704700EBC15070472DE93D
:10037000FE4F804681EA0300C00F0C46009021F03A
:10038000004123F00045B8EB0200A94105D24046E8
:10039000214690461C460B46024623F0004010437F
:1003A00047D0270DC7F30A00C3F30A510290401A41
:1003B000019040286BDAC3F3130040F4801B0098CF
:1003C000924620B10023D2EB030A63EB0B0B01989A
:1003D0005946C0F14002504600F00FFA06460D465D
:1003E00050465946019A00F017FA10EB0800614197
:1003F000002487EA115284EAE7731A4340D0009A36
:1004000062B3019A012A4FEA075215DC001B61EB27
:1004100002014FF0004202EA0752CDE90042001CFF
:1004200041F5801132462B4600F086FA03B0BDE854
:10043000F08F40462146F9E7001B61EB0201001CEA
:1004400041F5801300185B412018A2F5001747EB17
:10045000030140EAD570B6196D4111E06D084FEA0D
:10046000360645EAC0754FEA0752001B61EB0201F0
:10047000001C41F5801149084FEA30000019514134
:1004800032462B4603B0BDE8F04F00F046BA009864
:10049000012240000023D0EB020263EBE0730098DE
:1004A00021464FEAE074B8EB000061EB0401E9E794
:1004B00083F000435BE781F0004158E72DE9FE4FF0
:1004C00081EA030404F0004421F0004100944FF05D
:1004D000000B23F0004350EA01045ED052EA03040B
:1004E0005BD0C3F30A54C1F30A552C44A4F2F3348D
:1004F0000194A0FB0254C1F3130141F48011C3F332
:10050000130343F4801301FB024400FB034E840AEF
:10051000970A44EA815447EA8357A4FB0768029587
:100520008D0A05FB07854FEA932C04FB0C54270525
:10053000029D4FEA065847EA1637B5EB08056EEB01
:10054000070C870E920E47EA811742EA8312A7FB37
:100550000201B6EB0B0164EB00042B0D43EA0C33F4
:100560005E1844EB1C50DA465146E7FB0201C5F326
:1005700013044FEA0B3343EA14534FEA0432019C4D
:1005800043EA0603A4F10C040294009CCDE900B4F4
:1005900000F0D2F903B0BDE8F08F00200146F9E782
:1005A0002DE9F04D81EA030404F0004B21F00045F1
:1005B00014464FF0000A23F0004150EA050220D013
:1005C00054EA01021DD0C5F30A570246C5F31303CE
:1005D000C1F31300C1F30A5640F4801543F48013AD
:1005E000A7EB0608101BD64608F2FD3873EB050092
:1005F00002D308F1010801E092185B41B8F1000F45
:1006000003DA00200146BDE8F08D00204FF4801190
:10061000064684460EE0171B73EB050705D3121B35
:1006200063EB050306434CEA010C49084FEA30002E
:1006300092185B4150EA0107EDD152EA030012D053
:1006400082EA040083EA0501084305D0101BAB4190
:1006500006D20122002306E000224FF0004302E010
:100660006FF0010253101AEB06004CEB085110EB2F
:100670000A0041EB0B01BDE8F04D00F04EB9C10F8F
:1006800080EAE0700844CA079623002100F017B9F9
:100690000EB5C10F80EAE0700844CA07002140F29D
:1006A00033438DE80E000A460B4600F045F903B0CF
:1006B00000BD00F0004220F00040C10DC0F3160064
:1006C00040F400007F2901DA00207047962903DCFE
:1006D000C1F19601C84001E096398840002AF4D063
:1006E0004042704700F0004230F000400AD0C10D97
:1006F00001F56071C0F3160042EA0151C2084007DB
:100700001143704700200146704701F0004330B4A8
:1007100021F0004150EA010206D00A0DA2F56072F4
:10072000C1F31301002A02DC30BC00207047440FE3
:1007300044EAC104C100E01830BC00EBC25000F034
:10074000B5B80000002801DBC0F10040002901DB42
:10075000C1F1004181427047002801DBC0F1004037
:10076000002901DBC1F100418842704730B50B46DA
:10077000014600202022012409E021FA02F59D42D1
:1007800005D303FA02F5491B04FA02F52844151EA5
:10079000A2F10102F1DC30BD2DE9F05F0546002039
:1007A00092469B4688460646814640241BE02846E2
:1007B000414647462246FFF7D7FC53465A46C01AE1
:1007C000914110D311461846224600F016F82D1A12
:1007D00067EB01084F4622460120002100F00DF88A
:1007E00017EB00094E41201EA4F10104DFDC48464E
:1007F00031462A464346BDE8F09F202A04DB203AD2
:1008000000FA02F1002070479140C2F1200320FA63
:1008100003F3194390407047202A06DBCB17203A98
:1008200041FA02F043EAE07306E041FA02F3D040F5
:10083000C2F1200291400843194670472DE9F04764
:1008400091460F4680460446002614F8015B2DB100
:1008500000F002F90068405DC007F6D12B2D02D0F0
:100860002D2D18D0641E4A463946204600F0F8F86F
:1008700027B13968A14201D1C7F8008071054FF056
:1008800002040BD54042002803DD02F09FFA046009
:10089000A007BDE8F08746F48066E4E70028F8DAB0
:1008A00002F094FA04606FF00040F2E70029A8BF5C
:1008B0007047401C490008BF20F00100704710B489
:1008C000B0FA80FC00FA0CF050EA010404BF10BC3E
:1008D000704749B1CCF1200421FA04F411FA0CF16B
:1008E00018BF012121430843A3EB0C01CB1D4FEAA4
:1008F00000614FEA102042BF002010BC704700EB9F
:10090000C35010440029A4BF10BC7047401C4900CC
:1009100008BF20F0010010BC704710B5141E73F121
:10092000000408DA401C41F1000192185B411A43AF
:1009300001D120F0010010BD2DE9F04D92469B46FB
:1009400011B1B1FA81F202E0B0FA80F220329046A1
:10095000FFF753FF04460F4640EA0A0041EA0B0145
:1009600053465A46084313D0114653EA010019D0A2
:10097000C8F140025046FFF7F7FB05460E465046C9
:1009800059464246FFF739FF084305D0012004E0ED
:1009900020463946BDE8F08D0020054346EAE07662
:1009A0002C4337430A986305E40AA0EB08000022B1
:1009B000FD0A44EA47540A3002D500200146E9E71F
:1009C000010510196941DDE9084500196941BDE8D3
:1009D000F04DA2E7C1F30A52C1F3130140F2FF3315
:1009E00041F480119A4202DA00200146704740F239
:1009F00033439A42A2F2334202DC5242FFF7B4BBC5
:100A0000FFF7FBBE30B5041E71F1000404DB4FF0AC
:100A10000044404264EB0101141E73F1000405DB45
:100A20001C464FF00043524263EB0403994208BF57
:100A3000904230BD064C074D06E0E06840F00103EF
:100A400094E8070098471034AC42F6D3FFF774FBE4
:100A5000DC370008FC37000800487047D83700082A
:100A60002DE9F05F82460078002715468B460AF193
:100A70000104B946302801D09DB113E014F8010BF0
:100A80000127782803D0582801D045B10AE00DB1DC
:100A9000102D07D10027102514F8010B02E00825BE
:100AA00000E00A250026B0460EE005FB080005FB25
:100AB00006F1012701EB10461FFA80F8B6F5803FDA
:100AC00000D3B94614F8010B294600F018F80028A5
:100AD000EBDABBF1000F05D00FB1641E00E0544605
:100AE000CBF80040B9F1000F06D002F06FF90221F7
:100AF0000160C81EBDE8F09F48EA0640FAE73A28C0
:100B000000D2303820F02002412A01D3A2F1370070
:100B1000884201D34FF0FF307047FEE77047000076
:100B200070B5234D1021284600F060FA40EA4404D5
:100B30004021284600F05AFA40EA440010F0030130
:100B40001C4806D001291BD002291DD0032909D138
:100B50001EE08278012A02D18288521C01E082883C
:100B6000521E828081704189491C4181B0F9042064
:100B70000021B2F5FA6F0FDB8180C16A491C11E0D8
:100B80008278032AEBD1E7E78278002AE7D1E3E70E
:100B90008278022AE3D1DFE712F5FA6F03DC818065
:100BA000C16A491EC162BDE87040102000F00CB956
:100BB000000C01400000002070B5234D1021284694
:100BC00000F014FA40EA44044021284600F00EFAEE
:100BD00040EA440010F003011C4806D001291BD054
:100BE00002291DD0032909D11EE08278012A02D1F1
:100BF0008288521C01E08288521E82808170418965
:100C0000491C4181B0F904200021B2F5FA6F0FDBD5
:100C10008180C16A491C11E08278032AEBD1E7E7A1
:100C20008278002AE7D1E3E78278022AE3D1DFE77E
:100C300012F5FA6F03DC8180C16A491EC162BDE80A
:100C40007040402000F0C0B8000C014000000020BF
:100C50002DE9F05F002490F82110022903D004212F
:100C60008163012490E001680A6822F00E020A60A4
:100C700001680A6822F001020A60454A0168454B92
:100C8000DFF814C1454D464E464FDFF81C81DFF8B2
:100C90001C91DFF81CA1DFF81CB1DFF81CE19142C8
:100CA00032D9994201D101212BE0614501D11021B6
:100CB00027E0A94202D14FF4807122E0B14202D173
:100CC0004FF480511DE0B94202D14FF4803118E059
:100CD000414502D14FF4801113E0494501D1012172
:100CE0000FE0514501D110210BE0594502D14FF4DD
:100CF000807106E0714502D14FF4805101E04FF45C
:100D000080312E4A116036E0994201D1012130E054
:100D1000614501D110212CE0A94202D14FF480712C
:100D200027E0B14202D14FF4805122E0B94202D112
:100D30004FF480311DE0414502D14FF4801118E09D
:100D4000914202D14FF0807113E0494501D1012158
:100D50000FE0514501D110210BE0594502D14FF46C
:100D6000807106E0714502D14FF4805101E04FF4EB
:100D70008031134A5160012180F82110002180F850
:100D80002010416B01B188472046BDE8F09F00006C
:100D900080000240080002401C0002403000024077
:100DA00044000240580002406C0002400804024027
:100DB0001C04024030040240440402400404024087
:100DC000000002407047000010B504490A68024262
:100DD00002D00860FFF7F6FF10BD000014040140C8
:100DE0002DE9F84F00239C46DFF8F4810F2708F126
:100DF000040909F1040A0AF1040B012202FA0CF6B3
:100E00000A683240B2427CD1DFF8D8E14C68A4EBEA
:100E10000E0574452BD00DDC032C34D005DC34B327
:100E2000012C19D0022C2FD11BE0112C16D0122C22
:100E30002AD119E0B5F5881F19D006DCB5F5803F39
:100E400015D0B5F5801F1FD111E0B5F5001F0ED0EC
:100E5000B5F5041F18D10AE0CB6815E0CB681B1D5F
:100E600012E0CB6808330FE0CB680C330CE08B68E2
:100E700023B1012B04D00823466105E0042303E0DD
:100E80000823066100E00023B2F5807F01D2054609
:100E900001E000F1040502D24FEA8C0403E0ACF15A
:100EA00008044FEA84042E6807FA04FE26EA0E06B8
:100EB00003FA04F446EA04042C604C6814F0805FE2
:100EC0001FD0494CA56945F00105A561A46904F04E
:100ED000010400942CF0030404F1804404F58034F0
:100EE000A6684FEA8C754FEA157507FA05FE26EAE3
:100EF0000E0EA0F18046B6F584362AD0A0F18046C9
:100F000000E065E0B6F5863625D0A0F18046B6F55E
:100F1000883622D0A0F18046B6F58A361FD0A0F1DF
:100F20008046B6F58C361CD0A0F18046B6F58E36DC
:100F300019D0062606FA05F545EA0E05A5604C68A7
:100F400014F4803F11D0D8F800401443C8F8004092
:100F500010E00026EEE70126ECE70226EAE703268A
:100F6000E8E70426E6E70526E4E7D8F800409443DE
:100F7000C8F800404C6814F4003F05D0D9F8004090
:100F80001443C9F8004004E0D9F800409443C9F87C
:100F900000404C6814F4801F05D0DAF80040144378
:100FA000CAF8004004E0DAF800409443CAF8004070
:100FB0004C6814F4001F05D0DBF800402243CBF846
:100FC000002005E0DBF8004024EA0202CBF8002014
:100FD0000CF1010CBCF1100FFFF40FAFBDE8F88F5E
:100FE0000004014000001110001002408068084217
:100FF00001D00120704700207047002A01D0016114
:10100000704709040161704701488068704700001B
:1010100050000020024881680278114481607047C6
:101020005000002010B50748016841F01001016030
:10103000032000F089F8002000F006F800F026F800
:10104000002010BD0020024070B504460D4D4FF445
:101050007A712878B1FBF0F00B490968B1FBF0F028
:1010600000F0C4FB08B1012070BD102C07D2002293
:101070002146501E00F034F86C60002070BD012045
:1010800070BD0000500000204C0000200C4808B546
:10109000816941F001018161816901F001010091E3
:1010A000C16941F08051C161C06900F08050009079
:1010B0000448416821F0E06141F00071416008BDE1
:1010C000001002400000014000F01F01012202FA5E
:1010D00001F14009800000F1E020C0F800117047E4
:1010E00010B4184B1B68C3F30223C3F1070CBCF107
:1010F000040F01D94FF0040C1C1D072C01D2002352
:1011000000E0DB1E012404FA0CFCACF1010C0CEA3B
:101110000101994004FA03F35B1E1A4011430028B1
:1011200008DA00F00F0000F1E020090180F8141D3A
:1011300010BC704700F1E020090180F8001410BCD9
:10114000704700000CED00E000F00700064A11684F
:101150004FF6FF03194041EA002040F0FD7040F0D7
:1011600080601060704700000CED00E02DE9F04752
:1011700004460D46DFF8A081D8F8000000F0070013
:10118000A8420FD2D8F8000020F007002843C8F882
:101190000000D8F8000000F00700A84202D00120AB
:1011A000BDE8F08720685D4F10F0020F14D010F0FA
:1011B000040F03D0786840F4E0607860207810F085
:1011C000080F03D0786840F4605078607868A168B0
:1011D00020F0F00008437860207810F0010F5FD015
:1011E0006068012806D002280BD0396811F0020F80
:1011F00029D00AE0396811F4003F06D10120BDE88A
:10120000F087396811F0007F1AD0796821F0030166
:1012100008437860FFF7F8FE0646606841F28839B7
:10122000012813D0022824D0786810F00C0F37D092
:10123000FFF7EAFE801B48452ED90320BDE8F08762
:101240000120BDE8F0870120BDE8F087786800F054
:101250000C00042824D0FFF7D7FE801B484502D994
:101260000320BDE8F087786800F00C000428F2D174
:1012700016E0786800F00C00082811D0FFF7C4FED3
:10128000801B484502D90320BDE8F087786800F04C
:101290000C000828F2D103E0786810F00C0FC7D1D9
:1012A000D8F8000000F00700A8420FD9D8F80000D5
:1012B00020F007002843C8F80000D8F8000000F02C
:1012C0000700A84202D00120BDE8F087207810F086
:1012D000040F05D07868E16820F4E0600843786086
:1012E000207810F0080F06D07868216920F460504B
:1012F00040EAC100786000F03DF87968084AC1F31F
:101300000311515CC840074908600020FFF79CFEAC
:101310000020BDE8F08700000020024000100240DD
:101320003C3700084C00002001480068704700006E
:101330004C00002000B5FFF7F7FF04494968044A54
:10134000C1F30221515CC84000BD00000010024002
:101350004C37000800B5FFF7E7FF04494968044A25
:10136000C1F3C221515CC84000BD00000010024022
:101370004C37000885B015A0836842680168C068D2
:10138000039302920191049014A000680090144B02
:101390005968144801F00C02042A11D0082A0FD110
:1013A00001A8C1F38342805C11F4803F0AD05968E0
:1013B000C1F340411DF801100A4A5043B0FBF1F05F
:1013C00005B07047084905B048437047020304055B
:1013D000060708090A0B0C0D0E0F10100102000081
:1013E0000010024000127A0000093D002DE9F84F7C
:1013F0000446FA4D207810F0010F68D0686800F0BC
:101400000C00042808D0686800F00C0008280DD1F2
:10141000686810F4803F09D0286810F4003F56D067
:101420006068002853D10120BDE8F88F6068B0F5EE
:10143000803F15D0C8B1B0F5A02F1FD0286820F488
:1014400080302860286820F480202860606858B3C5
:10145000FFF7DAFD0646286810F4003F17D036E0A3
:10146000286840F480302860F0E7286820F4803055
:101470002860286820F480202860E7E7286840F486
:1014800080202860286840F480302860DEE7FFF77D
:10149000BBFD801B642802D90320BDE8F88F2868B3
:1014A00010F4003FF3D012E0FFF7AEFD06462868C7
:1014B00010F4003F0BD0FFF7A7FD801B642802D972
:1014C0000320BDE8F88F286810F4003FF3D120789E
:1014D000C34F10F0020F4FF0010B4FF0000854D033
:1014E000686810F00C0F14D0686800F00C00082831
:1014F00003D1686810F4803F0BD0206978B3C7F837
:1015000000B0FFF781FD0646286810F0020F12D0E8
:101510001DE0286810F0020F05D02069012802D0D4
:101520000120BDE8F88F2868616920F0F80040EAE2
:10153000C100286029E0FFF767FD801B022802D95F
:101540000320BDE8F88F286810F0020FF3D0286858
:10155000616920F0F80040EAC100286015E0FFE76B
:10156000C7F80080FFF750FD0646286810F0020F0C
:101570000BD0FFF749FD801B022802D90320BDE8EC
:10158000F88F286810F0020FF3D1207810F0080FC0
:1015900030D09448A169C1B1C0F800B0FFF734FD64
:1015A0000646686A10F0020F0BD1FFF72DFD801B75
:1015B000022802D90320BDE8F88F686A10F0020FF4
:1015C000F3D0012001F05AF814E0C0F80080FFF7D2
:1015D0001BFD0646686A10F0020F0BD0FFF714FDE2
:1015E000801B022802D90320BDE8F88F686A10F03A
:1015F000020FF3D1207810F0040F6FD00026E869B5
:1016000010F0805F08D1E86940F08050E861E86937
:1016100000F0805000900126DFF8CCA1DAF800003D
:1016200010F4807F1BD1DAF8000040F48070CAF813
:101630000000FFF7E9FC8146DAF8000010F4807F33
:101640000DD1FFF7E1FCA0EB0900642802D90320CB
:10165000BDE8F88FDAF8000010F4807FF1D0E06880
:10166000012816D0D0B1052821D0286A20F0010029
:101670002862286A20F004002862E06841F2883A73
:1016800068B3FFF7C1FC8146286A10F0020F17D03B
:101690003AE0286A40F001002862EEE7286A20F06C
:1016A00001002862286A20F004002862E5E7286A21
:1016B00040F004002862286A40F001002862DCE75C
:1016C000FFF7A2FCA0EB0900504502D90320BDE8BA
:1016D000F88F286A10F0020FF2D015E01AE0FFE749
:1016E000FFF792FC8146286A10F0020F0CD0FFF73A
:1016F0008BFCA0EB0900504502D90320BDE8F88F10
:10170000286A10F0020FF2D1012E03D1E86920F00F
:101710008050E861E069E8B3696801F00C010829CC
:1017200058D0022810D0C7F86080FFF76DFC04463F
:10173000286810F0007F4AD0FFF766FC001B0228E3
:1017400041D90320BDE8F88FC7F86080FFF75CFC43
:101750000646286810F0007F0BD0FFF755FC801B71
:10176000022802D90320BDE8F88F286810F0007F16
:10177000F3D1206AB0F5803F05D16868A16820F4F4
:10178000003008436860616A206A0843696821F490
:10179000741100E01BE008436860C7F860B0FFF711
:1017A00033FC0446286810F0007F10D1FFF72CFCB2
:1017B000001B022802D90320BDE8F88F286810F02A
:1017C000007FF3D003E0286810F0007FB4D1002040
:1017D000BDE8F88F0120BDE8F88F0000001002403E
:1017E000000042428004424200700040401EB0F1BE
:1017F000807F01D3012070474FF0E0214861044A07
:10180000F0201070002088610720086100207047D8
:1018100023ED00E07047704710B490F83C20012A97
:101820002AD0012380F83C30022280F83D20026853
:10183000D2F804C02CF0700CC2F804C00268D2F8D0
:1018400004C00C684CEA040CC2F804C00268D2F868
:1018500008C02CF0800CC2F808C00268D2F808C09A
:1018600049684CEA0101916080F83D30002180F820
:101870003C1010BC0020704710BC0220704710B50F
:101880000446002C03D094F83D0010B107E001207D
:1018900010BD002084F83C00204600F00DF8022026
:1018A00084F83D00211D206800F054FF012084F8D9
:1018B0003D00002010BD000008B5154A016815481C
:1018C00091420ED1C16941F00401C161C069002299
:1018D00000F00400009011461E20FFF701FC1E20BE
:1018E00010E00D4A914211D1C16941F00801C16176
:1018F000C069002200F00800009011463220FFF776
:10190000EFFB3220BDE80840FFF7DEBB08BD00005A
:101910000008004000100240000C00400168CA6846
:1019200042F00102CA600068016841F001010160F3
:101930000020704770B5044694F83C00012818D088
:10194000012584F83C50022084F83D00206882681C
:1019500022F0770222F47F428260086850283AD051
:101960000EDC20285FD006DC002852D0102863D17E
:1019700054E0022070BD30285AD040285CD13EE0AF
:10198000602832D070280CD0B0F5805F03D0B0F55D
:10199000005F51D113E02068816821F00701816068
:1019A0004AE0CB684A688968206800F028FF206810
:1019B000816821F0770141F0770181603CE0CB68DC
:1019C0004A688968206800F01AFF2068816841F43D
:1019D0008041816030E0CA684968206800F0FEFFFD
:1019E0005021206800F016FF26E0CA684968206888
:1019F00001F007F86021206800F00CFF1CE0CA68C5
:101A00004968206800F0EAFF4021206800F002FFEA
:101A100012E00021206800F0FDFE0DE0102120689A
:101A200000F0F8FE08E02021206800F0F3FE03E05B
:101A30003021206800F0EEFE84F83D50002084F84C
:101A40003C0070BD704770B50446206801694FF0D6
:101A5000000511F0020F17D0C16811F0020F13D06A
:101A6000E91E0161012020772068806910F0030FD2
:101A700003D02046FFF7E6FF05E0204600F0ECF833
:101A8000204600F093F925772068016911F0040FD2
:101A900018D0C16811F0040F14D06FF00401016177
:101AA000022020772068806910F4407F03D0204610
:101AB000FFF7C8FF05E0204600F0CEF8204600F012
:101AC00075F925772068016911F0080F18D0C168F1
:101AD00011F0080F14D06FF0080101610420207785
:101AE0002068C06910F0030F03D02046FFF7AAFF5B
:101AF00005E0204600F0B0F8204600F057F92577C1
:101B00002068016911F0100F18D0C16811F0100F92
:101B100014D06FF010010161082020772068C0699F
:101B200010F4407F03D02046FFF78CFF05E02046ED
:101B300000F092F8204600F039F925772068016915
:101B400011F0010F09D0C16811F0010F05D06FF03D
:101B500001010161204600F047F92068016911F098
:101B6000800F09D0C16811F0800F05D06FF080019F
:101B700001612046FFF74EFE2068016911F0400F19
:101B800009D0C16811F0400F05D06FF0400101612C
:101B9000204600F0D1F92068016911F0200F0BD028
:101BA000C16811F0200F07D06FF0200101612046BD
:101BB000BDE87040FFF72FBE70BD000010B586B0C5
:101BC0000021009101910291039102681D480221B8
:101BD0001D4CB2F1804F1CD01C4B9A4217D1826928
:101BE00042F0100282618069039100F010000490BD
:101BF0008020CDE9000169461548FFF7F1F86068DB
:101C000020F4406040F0E06040F44060606006B066
:101C100010BD826942F0080282618069039100F080
:101C2000080004904FF48060CDE90001694609483E
:101C3000FFF7D6F8606820F4407040F0E06040F4B0
:101C40000070E3E700100240000001400004004083
:101C500000100140000C0140704770B504460D466D
:101C600094F83C0001280DD0012684F83C60022045
:101C700084F83D0042B1042A1AD0082A2DD00C2A3B
:101C800053D13EE0022070BD2946206800F0CAFD15
:101C90002068816941F0080181612068816921F033
:101CA00004018161206881692A69114381613CE0F6
:101CB0002946206800F0EEFD2068816941F400614A
:101CC00081612068816921F4806181612068816976
:101CD0002A6941EA0221816127E02946206800F053
:101CE00015FE2068C16941F00801C1612068C16921
:101CF00021F00401C1612068C1692A691143C161F1
:101D000013E02946206800F03DFE2068C16941F4D7
:101D10000061C1612068C16921F48061C1612068EE
:101D2000C1692A6941EA0221C16184F83D6000204D
:101D300084F83C0070BD10B50446002C03D094F824
:101D40003D0010B107E0012010BD002084F83C00E8
:101D5000204600F00DF8022084F83D00211D206887
:101D600000F0F8FC012084F83D00002010BD0000C8
:101D700008B501680B48B1F1804F0BD00A4A914277
:101D800007D1C16941F00201C161C06900F00200E0
:101D9000009008BDC16941F00101C161C06900F056
:101DA0000100F5E70010024000040040704710B544
:101DB00004460122206800F015FD2168A1F1804051
:101DC000B0F5963004D0A1F18040B0F59A3003D13F
:101DD000486C40F4004048642068016841F001010B
:101DE0000160002010BD00002DE9F8430068414962
:101DF0000027414C884263D1B4F90400FEF748FC47
:101E0000DFF8F880DFF8F89042464B46FEF756FBC5
:101E100000223C4BFEF7C4FB0546E06A0E4640003C
:101E2000FEF736FC42464B46FEF748FB33462A4651
:101E3000FEF79DFAFEF769FC054633496061FEF73F
:101E40001AFAFEF74FFC4246304BFEF7A9FBFEF7AD
:101E50005CFC20646089206300EB400167814900DD
:101E6000E180FEF715FC42464B46FEF727FB0022B9
:101E7000274BFEF795FBFEF748FCA063012060644A
:101E8000244800900023244A2946606B00F07AFB26
:101E90002082224DA16C81B1214801290BD0022959
:101EA00007D101220821FFF7A8F82968B4F910002A
:101EB0008863BDE8F8830022F4E728688763F8E7C1
:101EC00018498842F5D12078401CC0B220700528FE
:101ED000EFD12770B4F9061013A000F067FF206C53
:101EE000FEF700FC01B00246BDE8F0430B4610A02F
:101EF00000F05CBF00080040000000206F1283C0AB
:101F0000CA21094000408F4000002041CA211940E9
:101F10000000144007452F41C0547341A400002025
:101F200000100140000C00405625640D200A0000FE
:101F30005025660D200A00007047704710B5044612
:101F400022681068D168526900F00F03002B0AD193
:101F500010F0200F07D011F0200F04D02046BDE86C
:101F6000104000F083BD002B6BD002F0010301F4A0
:101F7000907C53EA0C0364D010F0010F06D011F4EA
:101F8000807F03D0E36B43F00103E36310F0040FA1
:101F900006D012F0010F03D0E36B43F00203E363BA
:101FA00010F0020F06D012F0010F03D0E36B43F0E4
:101FB0000403E36310F0080F06D012F0010F03D002
:101FC000E26B42F00802E263E26B002A2ED010F0CE
:101FD000200F05D011F0200F02D0204600F046FD62
:101FE00020684069C0F38010E16B11F0080F00D148
:101FF00008B3204600F01FFD2068416911F0400F32
:1020000015D0416921F040014161606B58B1184918
:102010004163606BFEF71CFE002807D0606B416BCC
:10202000BDE8104008472046FFF787FF10BD204657
:10203000FFF783FF10BD2046FFF77FFF0020E0631E
:1020400010BD10F0800F07D011F0800F04D0204693
:10205000BDE8104000F032BE10F0400FF0D011F09B
:10206000400FEDD02046BDE8104000F0F2BC00006B
:10207000272A000870B50446002C04D094F83900D3
:10208000002510B106E0012070BD84F838502046CC
:1020900000F022F8242084F839002068C16821F477
:1020A0000051C160204600F02FFD2068016921F435
:1020B000904101612068416921F02A014161206855
:1020C000C16841F40051C160E563202084F8390003
:1020D00084F83A00002070BD30B585B0002400942B
:1020E0000194029403940068184988422CD118483E
:1020F000816941F480418161816901F480410491E9
:10210000816941F0040181618069124D00F0040091
:1021100004904FF40070009002200190032003907F
:1021200069462846FEF75CFE2815CDE9000469469D
:1021300028460294FEF754FE002211462520FEF7A1
:10214000CFFF2520FEF7C0FF05B030BD00380140AD
:10215000001002400008014090F83A30202B01D0D6
:1021600002207047F9B1F2B190F83830012B1CD041
:1021700081628285C2850021C163222280F83A20D3
:1021800080F838100168CA6842F48072CA60016839
:102190004A6942F001024A610068C16841F02001C9
:1021A000C160002070470120704702207047000086
:1021B00070B500683249884261D1324C324A0025FC
:1021C000E17829B900201554401CC0B21428FAD374
:1021D0002C480C300078362842D00ADCA0F12D03C0
:1021E000092B43D2DFE803F03C3C423C3C3C3C3C06
:1021F0003C0065280ED006DC372831D038282FD097
:10220000392833D12CE0722806D0732807D07628DD
:102210002CD11BE0657029E00120607026E01A488F
:10222000FDF7C4FFFEF72BFA0121E063FEF793F8F8
:10223000FEF758FA154A164BFEF740F90022154BE7
:10224000FEF7AEF9FEF761FA606303E00E48FDF7B2
:10225000ADFF208114210C48FDF79DFFE57005E0DE
:102260000A44491CE1701178014311700549BDE829
:102270007040054801220C314038FFF76DBF70BD3A
:102280000038014000000020A40100206F1283C02C
:10229000CA210940000024402DE9F84304460D46B8
:1022A00091461E4694F83900202802D00220BDE84D
:1022B000F8834DB3B9F1000F26D094F83800012807
:1022C00025D0012084F838000027E763212084F816
:1022D0003900FEF799FE8046A4F82490A4F82690D1
:1022E000E08CA0B3E08C401EE084A068B0F5805F75
:1022F00010D04346002280212046009600F011FDB8
:10230000F0B10320BDE8F8830120BDE8F883022086
:10231000BDE8F8834346002280212046009600F065
:1023200000FD10B10320BDE8F88328882168C0F3C0
:1023300008004860206908B16D1C05E0AD1C03E091
:10234000216815F8010B4860E08C0028CAD143468B
:10235000002240212046009600F0E3FC10B103204B
:10236000BDE8F883202084F8390084F83870002014
:10237000BDE8F8837047FEE770B586B000242448B6
:102380000094019402940394816941F010018161E9
:10239000816901F010010491816941F008018161B6
:1023A000816901F008010491816941F004018161B2
:1023B0008069184E00F00400049000220821304685
:1023C000FEF71BFE08200125CDE900050220CDE91E
:1023D000024069463046FEF703FD502000900E484B
:1023E000CDE9010569460D48FEF7FAFC00221146C9
:1023F0000A20FEF775FE0A20FEF766FE002211464F
:102400001720FEF76DFE1720FEF75EFE06B070BDCA
:10241000001002400010014000003110000C01408B
:1024200010B58AB0002407941C2168460894FDF773
:10243000B2FE11484FF0804101600B21C0E9011448
:102440006421C0E903148461FFF775FC079407A9B0
:1024500009480894FFF7E0F96020CDE900040294F0
:102460000822694604480494FFF7F7FB0248FFF787
:10247000A5FB0AB010BD00006400002010B58AB0B2
:10248000002407941C2168460894FDF784FE114837
:102490000F4901600B21C0E901146421C0E9031454
:1024A0008461FFF748FC079407A90A480894FFF7DE
:1024B000B3F96020CDE9000402940422694605487E
:1024C0000494FFF7CAFB0348FFF778FB0AB010BD7E
:1024D00000040040A400002010B586B0002412487B
:1024E000009401940294039404940E4905940160AD
:1024F00045F6BF51C0E901140421C0E90314846109
:10250000FFF7BDF94FF48050009069460648FFF789
:1025100011FA049404A904480594FFF77DF906B064
:1025200010BD000000080040E400002010B586B097
:1025300000241248009401940294039404940E49D8
:102540000594016045F6BF51C0E901140921C0E9B5
:1025500003148461FFF793F94FF4805000906946AB
:102560000648FFF7E7F9049404A904480594FFF727
:1025700053F906B010BD0000000C004024010020FB
:10258000FEE770472DE9F05F9B461746DFF8D490D1
:10259000354EFDF76AFE354CDFF8D4800546B0F5C0
:1025A000000F01DB012008E015F1FF4F04D30220EA
:1025B00085F00045A06401E00020A064294638466B
:1025C000FDF759FE82462846E169FDF74EFE0A995D
:1025D000FDF751FE4946FDF780FE01463046FDF706
:1025E0004AFE06462348A16AFDF745FE3146FDF73F
:1025F000EAFD0746616AA069FDF73DFE06462946E9
:102600005846FDF738FE3146FDF7DDFD01464846E8
:10261000FDF731FE216AFDF7D6FD0646A762C4E943
:10262000075639465046FDF7CEFD3146FDF7CBFD46
:102630000646454640463146FEF784F807D300205B
:102640003146FEF789F801D2002500E035463146D3
:102650002846FDF70AFE60622846FEF72AF800B217
:10266000BDE8F09F0AD7A33BCDCCCC3D00000020B5
:102670000000C8426666663F7047000081B00749A7
:102680004FF4FA520968B1FBF2F14843009000BFE1
:102690000098411E0091FAD201B070474C00002012
:1026A0007047FEF7B7BC30B58FB028216846FDF7FC
:1026B00072FD14210AA8FDF76EFD0224012004908A
:1026C00000941020059000254FF42010CDE908500B
:1026D00007946846FEF78AFE0AA90F2081E83100B8
:1026E0004FF4A0600D900E9001210AA8FEF73EFD68
:1026F0000FB030BD0D48016841F001010160416833
:102700000B4A1140416001680A4A114001600168AA
:1027100021F480210160416821F4FE0141604FF401
:102720001F0181600449C003086070470010024027
:102730000000FFF8FFFFF6FE08ED00E00148FFF79C
:1027400082B90000E40000200148FFF77CB90000D6
:1027500024010020F0B402681D4B1E4C1E4D1F4E7C
:10276000DFF87CC098420AD0604508D0B0F1804FB5
:1027700005D0A04203D0A84201D0B04203D122F03C
:1027800070024F683A4398420AD0604508D0B0F1D1
:10279000804F05D0A04203D0A84201D0B04203D15F
:1027A00022F44072CC68224322F080024C6922431A
:1027B00002608A68C2620A688262984201D06045FB
:1027C00001D10969016301214161F0BC704700003A
:1027D000002C01400004004000080040000C0040B4
:1027E0000034014001238B40D0F820C02CEA0303C1
:1027F0000362036A02FA01F1194301627047D0F8DB
:1028000008C02CF47F4C42EA0322114341EA0C0138
:1028100081607047826822F07002114341F0070125
:102820008160704770B4026A22F001020262036A9A
:102830004268D0F818C02CF0700C2CF0030C0C6817
:1028400044EA0C0C23F002038C6823430F4C104D18
:10285000A04201D0A84205D123F00803CE6833433B
:1028600023F00403A04201D0A84207D122F48072D1
:1028700022F400724C6922438C6922434260C0F802
:1028800018C049684163036270BC7047002C014066
:102890000034014070B4026A22F010020262036A3E
:1028A0004268D0F818C02CF4E04C2CF4407C0C6842
:1028B0004CEA042C23F020038C6843EA0413114CE7
:1028C000114DA04201D0A84206D123F08003CE686A
:1028D00043EA061323F04003A04201D0A84209D1E5
:1028E00022F4806222F400624C6942EA84028C691C
:1028F00042EA84024260C0F818C0496881630362FA
:1029000070BC7047002C01400034014070B4026A72
:1029100022F480720262036A4268D0F81CC02CF074
:10292000700C2CF0030C0C6844EA0C0C23F40073BC
:102930008C6843EA0423114C114DA04201D0A842F7
:1029400006D123F40063CE6843EA062323F48063B0
:10295000A04201D0A84209D122F4805222F40052B0
:102960004C6942EA04128C6942EA04124260C0F8DF
:102970001CC04968C163036270BC7047002C0140F1
:102980000034014010B4026A22F480520262D0F88E
:1029900020C04268C36923F4E04323F440730C6809
:1029A00043EA04232CF4005C8C684CEA043CA0F15C
:1029B0008044B4F5963404D0A0F18044B4F59A3440
:1029C00004D122F480424C6942EA84124260C3611D
:1029D00049680164C0F820C010BC7047036AD0F891
:1029E00020C02CF0010CC0F820C0D0F818C02CF08A
:1029F000F00C4CEA021223F00A03194382610162CF
:102A00007047036A23F010030362D0F818C0036A0A
:102A10002CF4704C4CEA023223F0A00343EA01117B
:102A200082610162704710B5406A0021C185C1848E
:102A3000FFF783FA10BD0168CA6822F49072CA6079
:102A400001684A6922F001024A61202180F83A10A7
:102A5000704710B50168CA6822F04002CA602021A0
:102A600080F83910FFF786FC002010BD10B590F8F3
:102A70003A10222901D0022010BD8168B1F5805F93
:102A800011D0016919B30168496801F07F02816AB8
:102A90004B1C83620A70C18D491E0904090CC18553
:102AA0001CD0002010BD816A02693AB102685268E8
:102AB000D2B20A80816A491C8162ECE702685268DE
:102AC000C2F308020A80816A891C8162E3E7016817
:102AD0004A68816A4B1C83620A70DCE70168CA6835
:102AE00022F02002CA600168CA6822F48072CA60BB
:102AF00001684A6922F001024A61202180F83A10F7
:102B0000FFF756FB002010BD2DE9F0410446206878
:102B10000169E26821F44051114301612169A06813
:102B20000143606901432068C26822F4037222F401
:102B3000A0521143C16020684169A26921F440712B
:102B40001143416120685C4D3226A0F18041B1F50E
:102B50009C3158D0FEF7EEFB00EBC00101EB0010FA
:102B600061688900B0FBF1F7FEF7E4FB00EBC00100
:102B700001EB001061688900B0FBF1F0A5FB0010CB
:102B800040096FF01801484307EB800006EB001086
:102B9000A5FB0010400900F0F007FEF7CBFB00EBAF
:102BA000C00101EB001061688900B0FBF1F0A5FBEA
:102BB0000010400907EB0017FEF7BCFB00EBC0015B
:102BC00001EB001061688900B0FBF1F8FEF7B2FB81
:102BD00000EBC00101EB001061688900B0FBF1F06F
:102BE000A5FB001040096FF01801484308EB800076
:102BF00006EB0010A5FB00102168C0F34310384419
:102C00008860BDE8F081FEF7A5FB00EBC00101EB99
:102C1000001061688900B0FBF1F7FEF79BFB00EB49
:102C2000C00101EB001061688900B0FBF1F0A5FB69
:102C3000001040096FF01801484307EB800006EBD5
:102C40000010A5FB0010400900F0F007FEF782FB22
:102C500000EBC00101EB001061688900B0FBF1F0EE
:102C6000A5FB0010400907EB0017FEF773FB00EB14
:102C7000C00101EB001061688900B0FBF1F8FEF7BC
:102C800069FB00EBC00101EB001061688900B0FB3B
:102C9000F1F0A5FB001040096FF01801484308EB64
:102CA000800006EB0010A5FB00102168C0F3431064
:102CB00038448860BDE8F0811F85EB5190F83910E9
:102CC000212901D0022070478168B1F5805F0CD0C6
:102CD000016A4A1C0262026809785160C18C491E6F
:102CE0000904090CC18410D019E0016A026809883E
:102CF000C1F308015160016919B1016A491C0162FF
:102D0000ECE7016A891C0162E8E70168CA6822F001
:102D10008002CA600068C16841F04001C1600020C3
:102D200070472DE9F0410446069D884617461E4629
:102D30002068006838EA000020D00020B84227D17F
:102D4000B5F1FF3F1CD025B1FEF75EF9801BA8420C
:102D500016D92068C16821F4D071C160206841692A
:102D600021F001014161202084F8390084F83A0003
:102D7000002084F838000320BDE8F0810120DDE761
:102D80002068006838EA000005D00020B842D7D09B
:102D90000020BDE8F0810120F8E700000148FFF7BE
:102DA000CDB8000064010020FEE700000FB4054B21
:102DB00010B503A9044A029800F0DEF810BC5DF8D3
:102DC00014FB0000A93600085C0000200048704792
:102DD0006000002002E008C8121F08C1002AFAD1D2
:102DE00070477047002001E001C1121F002AFBD18B
:102DF000704700002DE9FF5F82B00021DDE904305B
:102E0000020DDDF840B0034318D044F61050A2F292
:102E1000FF3242431514119801281FD0A5EB0B0077
:102E2000401C5FEA000A4FF000064E4FDFF8389171
:102E3000B046504615D5CAF1000413E0119801249C
:102E40004AA3012801D16FEA0B010298119AC0E947
:102E50000031C0E9024206B0BDE8F09FCBF10000AE
:102E6000DFE704460021404A491842EB0450CDE90F
:102E7000001012E0E00707D032463B464046494684
:102E8000FDF71CFB8046894632463B4610461946F4
:102E9000FDF714FB06460F466410002CEAD1DDE96D
:102EA0000401DDE90023BAF1000F06DAFDF706FBA5
:102EB00042464B46FDF702FB05E0FDF771FB42463B
:102EC0004B46FDF76DFB04460E460022284BFDF7EE
:102ED00099FD03D84FF0FF30014607E00022254B53
:102EE00020463146FDF743FAFDF774FD102409E052
:102EF000002C0ADB0A220023FDF74EFC039B303234
:102F00001A55641E50EA0102F2D1641C039AC4F1FE
:102F100011031444119A012A03D0012208430DD150
:102F20000AE0084304D000204FF0110B119072E723
:102F3000A3EB0B056D1E0DE05B4504DD4FF00002B9
:102F400005F1010504E003DA4FF00002A5F10105E7
:102F5000002AECD002981199C0E90231C0E900457D
:102F600079E70000000014400000F03F300000004E
:102F70000000F0430000E03F2DE9FF4F95B09B4675
:102F80008946064600250FE2252877D100242746EA
:102F9000F84A0121059400E0044316F8013F203B64
:102FA00001FA03F01042F7D130782A2811D06FF0DF
:102FB0002F033078A0F13002092A16D8059A44F080
:102FC000020402EB820203EB42021044761C0590DD
:102FD000EFE759F8042B0592002A03DA504244F433
:102FE0000054059044F00204761C30782E2816D147
:102FF00016F8010F44F004042A280DD06FF02F02B8
:103000003078A0F13003092B09D807EB870302EBD6
:103010004303C718761CF3E759F8047B761C307815
:103020006C280FD006DC4C2817D068280DD06A28F1
:1030300014D104E0742810D07A280FD10DE044F4A4
:1030400000140AE044F4801401E044F4401472785F
:10305000824202D104F58014761C761C30786628F2
:103060000BD013DC582877D009DC002875D0452810
:10307000F6D04628F4D047281AD19DE118E06328FD
:1030800035D0642879D0652812D195E1702873D0A5
:1030900008DC6728F1D069286FD06E280DD06F2822
:1030A00006D1B5E073282CD0752875D0782874D057
:1030B0005A46179990476D1C75E1C4F302500228D7
:1030C00009D003280DD0D9F8001004280DD00D60C8
:1030D00009F1040967E1D9F80010EA17C1E90052C3
:1030E000F6E7D9F800100D80F2E70D70F0E719F857
:1030F000041B8DF8001000208DF80100EA46012025
:1031000003E059F804AB4FF0FF3061074FF00001C6
:1031100002D40DE008F101018846B9420FDA80457A
:10312000F8DB1AF808100029F4D108E008F10101D1
:1031300088468142FADB1AF808100029F6D1059872
:103140005B46A0EB080721463846179A00F094FA30
:10315000284400EB080507E04DE029E10DE01AF8EE
:10316000010B5A4617999047B8F10108F7D25B4610
:1031700021463846179A13E142E00A220092C4F32E
:1031800002524FF0000A022A08D059F804CB032A51
:103190004FEAEC710AD00DE029E02AE009F10701BD
:1031A00021F00702F2E802C1914609E00FFA8CFC17
:1031B0004FEAEC71042A03D14FFA8CFC4FEAEC7110
:1031C000002907DA0A460021DCF1000C61EB02015C
:1031D0002D2202E0220504D52B228DF804200122A5
:1031E00003E0E20701D02022F7E7904659E00A21E8
:1031F00002E010220DE010214FF0000A00910BE0D8
:1032000010224FF0000A44F004040827009203E063
:1032100008224FF0000A0092C4F30252022A05D09D
:1032200059F804CB0021032A08D009E009F107016D
:1032300021F00702F2E802C1914605E01FFA8CFC7A
:10324000042A01D10CF0FF0C4FF00008220728D50A
:10325000702806D0009B83F0100353EA0A0305D0C0
:103260000EE040228DF80420012208E05CEA010211
:1032700006D030228DF804208DF8050002229046F9
:10328000009B83F0080353EA0A030AD15CEA0102B7
:1032900001D1620705D530228DF804204FF00108D6
:1032A0007F1E582804D034A003900EA802900DE091
:1032B00036A0F9E753466046009AFDF76DFA84465A
:1032C0000398825C0298401E029002705CEA010042
:1032D000F0D1029806A9081A00F1200A600702D569
:1032E00024F4803400E00127574502DDA7EB0A00F3
:1032F00000E0002000EB0A01009005984144401ACC
:103300000590E00306D45B462146179A059800F025
:10331000B3F90544002706E001A85A46C05D179995
:1033200090476D1C7F1C4745F6DBE0030CD55B46E0
:103330002146179A059800F09FF9054404E03020D3
:103340005A46179990476D1C0099481E0090002915
:10335000F5DC08E0029802995A460078491C02916F
:10336000179990476D1CBAF10001AAF1010AF1DC2E
:1033700065E1000009280100303132333435363739
:1033800038396162636465660000000030313233B1
:103390003435363738394142434445460000000051
:1033A00000F058F90544761C307800287FF4ECAD25
:1033B00019B02846BDE8F08F620700D4062709F14E
:1033C000070222F0070CFCE80223E14603F0004864
:1033D0005FEA080C02D00FF2702C0DE05FEA045C8B
:1033E00002D50FF2682C07E05FEAC47C02D00FF22E
:1033F000602C01E0AFF2700C4FF0FF3823F0004377
:10340000CDF850C065280CD006DC452809D04628E8
:103410001DD047283DD13DE0662818D067287ED1D1
:1034200038E00021112F01DB112000E0781CCDE9EC
:10343000000106A90EA8FFF7DDFCDDE90F010E9AD9
:1034400003910021009207F1010A04914DE04FF031
:1034500000400097CDE9011006A90EA8FFF7CAFCAD
:10346000DDE90F0203920E9B11990022DDF80CA0FA
:103470000093049211B9791C00EB010AB7EB0A0022
:1034800004D4C0F1FF3007F1010A0490AAEB070051
:10349000019044E0012F00DA01270021112F01DD06
:1034A000112000E03846CDE9000106A90EA8FFF77B
:1034B000A1FCDDE90F010E9A039100210491009215
:1034C000BA4621070CD40399514500DA8A46BAF16D
:1034D000010F05DD009AAAF10101515C302908D0E5
:1034E000B84202DA10F1040F06DA0121CDE9011029
:1034F00015E0AAF10101E9E7002805DC049901447F
:103500000491AAEB000102E0411C514500DD8A460E
:103510000499401A401C01904FF00040029020078F
:1035200004D40198504501DBCDF8048000208DF8CB
:103530004F0002980DF14F07B0F1004F25D02B201E
:103540000E9002984FF0020800280CDA40420290D8
:103550002D200E9007E00A210298FDF707F930317F
:10356000029007F8011DB8F10001A8F10108F2DC92
:1035700002980028EFD1791E0E980870307800F07C
:10358000200040F0450007F8020D12A8C01B00F112
:1035900007081498007800B1012000EB0A01019897
:1035A00001EBE07105984144401A401E0590E0038C
:1035B00006D45B462146179A059800F05DF805444D
:1035C0001498007818B15A46179990476D1CE0037B
:1035D00024D55B462146179A059800F04DF805441E
:1035E0001CE00498002807DBDDE90301884203DDC5
:1035F0000098405C179901E0179930205A4690478F
:10360000049805F10105401C04900198401E0190AA
:1036100004D12E205A46179990476D1CBAF100012B
:10362000AAF1010ADDDC05E017F8010B5A461799EB
:1036300090476D1CB8F10001A8F10108F4DC5B466D
:103640002146179A0598ABE62D0000002B000000DC
:10365000200000002DE9F041044600251E461746D3
:10366000880404D405E039462020B0476D1C641E50
:10367000F9D52846BDE8F0812DE9F0410446002542
:103680001E469046C80301D5302700E02027880455
:1036900004D505E041463846B0476D1C641EF9D597
:1036A0002846BDE8F081000013B564230122694675
:1036B0000248FEF7F1FD00981CBD000064010020E7
:1036C000FDF7B0FCFEF7EFFFFEF756FEFEF7A8FE93
:1036D000FEF7D4FE164815490C2201604FF4E13183
:1036E000416000218160C160C0E904128161C16153
:1036F000FEF7C0FCFEF7F0FEFEF718FF08210D48AC
:10370000FEF755FB0B4804214030FEF750FB0848FC
:103710008038FEF703F906484038FEF7FFF801222B
:1037200005490348FEF718FDFEE700000038014098
:1037300064010020640000200C0000200000000054
:103740000000000001020304060708090000000051
:10375000010203040040404040404040404041419D
:103760004141414040404040404040404040404056
:1037700040404040400502020202020202020202F0
:1037800002020202022020202020202020202002ED
:10379000020202020202909090909090101010107D
:1037A0001010101010101010101010101010101019
:1037B00002020202020288888888888808080808AD
:1037C0000808080808080808080808080808080879
:1037D000020202024000000055370008FC370008D2
:1037E0000000002064000000D42D000860380008AC
:1037F0006400002054050000E42D000800000000D3
:1038000000000000000000000000000000000000B8
:1038100000000000000000000000000000000000A8
:103820000000000000000000000000000000000098
:103830000000000000000000000000000000000088
:10384000000000000000000000A24A040100000087
:103850001000000000000000000000000000000058
:0400000508000131BD
:00000001FF
